:1000000044C000005FC000005DC000005BC0000095
:1000100059C0000057C0000055C0000053C0000088
:1000200051C000004FC000004DC00000EDC30000F3
:100030001FC40000B5C300007EC3000043C0000021
:1000400041C000003FC00000B1C50000EDC5000088
:1000500039C0000037C0000035C0000033C00000C8
:1000600031C000002FC0000045464765666700208C
:100070002B2D2E3031323334353637383968006322
:1000800064696E6F70737578580011241FBECFEFCE
:10009000D8E0DEBFCDBF11E0A0E0B1E0E4E6FDE1D5
:1000A00002C005900D92AC37B107D9F723E0ACE759
:1000B000B1E001C01D92A231B207E1F70E94860AA9
:1000C0000C94B00E9DCF28D387E291E026D356D270
:1000D000B5D21ED300C05AC3AF92BF92CF92DF9267
:1000E000EF92FF920F931F93CF93DF93EC016B017D
:1000F0008A018C819D818417950710F40C811D81E4
:100100006C857D85E884F984E61AF70A0E151F05CB
:1001100098F1E016F106D0F0A801C6010E94C20DC8
:100120008E819F819D878C878C819D81801B910B07
:100130009D838C83C801DF91CF911F910F91FF9018
:10014000EF90DF90CF90BF90AF900895A701C601C8
:100150000E94C20D5801AE18BF086E817F81A501B3
:10016000C6018E0D9F1D0E94C20D4E815F814A0DFA
:100170005B1D5D874C87D8CFA801C6010E94C20DC8
:100180008C859D85800F911F9D878C87CDCFAF92E9
:10019000BF92CF92DF92EF92FF920F931F93CF9374
:1001A000DF93EC016B018A018C819D818417950797
:1001B00010F40C811D818A859B85E884F984E81AF6
:1001C000F90A0E151F0598F1E016F106D0F0A80106
:1001D000B6010E94C20D8E819F819B878A878C8188
:1001E0009D81801B910B9D838C83C801DF91CF91F2
:1001F0001F910F91FF90EF90DF90CF90BF90AF9045
:100200000895A701B6010E94C20D5801AE18BF089B
:10021000B6016E0D7F1DA5018E819F810E94C20DCA
:100220004E815F814A0D5B1D5B874A87D8CFA8014D
:10023000B6010E94C20D8A859B85800F911F9B8706
:100240008A87CDCF0F931F93FC0191838083938383
:1002500082831582148277836683758764877387A8
:100260006287640F751F7187608737872687118BB8
:10027000008B1F910F910895FC01A285B3858485A1
:100280009585A817B907E9F0848195810196958332
:100290008483CD010196938782876C932285338571
:1002A000808591852817390720F08681978193876B
:1002B0008287CF0170E060E00E94B30990E080E0A7
:1002C000089584819581892BF9F28FEF9FEF08952E
:1002D0000F931F93CF93DF93EC018B01F89406C02B
:1002E000B801CE010E94960997FD27C08C819D819F
:1002F000892BB1F38C819D8101979D838C83EC8543
:10030000FD85CF0101969D878C87108128853985D1
:100310008217930720F08E819F819D878C87EE85C1
:10032000FF85309711F0CE0109957894812F90E0E8
:10033000DF91CF911F910F9108957894DF91CF9124
:100340001F910F9108956F927F928F929F92AF921B
:10035000BF92CF92DF92EF92FF920F931F93CF93B2
:10036000DF936C017B014A013901FC01A684B7844B
:10037000F89441155105B9F08A01A801B701C601E9
:10038000ABDEEC01892B01F1A114B10419F0C60117
:10039000F501099578940C1B1D0BEC0EFD1EF894CD
:1003A0000115110551F7C4017894DF91CF911F9188
:1003B0000F91FF90EF90DF90CF90BF90AF909F9004
:1003C0008F907F906F900895B301C601AFD7892BAE
:1003D000A1F2C401801B910BE7CF0F931F93FC0187
:1003E0009183808393838283558344837783668359
:1003F0007587648773876287640F751F718760874D
:1004000037872687118B008B1F910F910895FF92DC
:100410000F931F93CF93DF93EC01F62E8A01F8948C
:1004200005C0B801CE0182D797FD2AC08C819D817D
:10043000892BB9F38C819D8101979D838C83EA85FB
:10044000FB85CF0101969B878A87F0822A853B85B1
:10045000888599852817390720F08E819F819B8791
:100460008A87EE85FF85309711F0CE010995789443
:1004700090E080E0DF91CF911F910F91FF90089560
:100480007894DF91CF911F910F91FF900895CF93B2
:10049000FC01A485B585828593858A179B07E1F0C9
:1004A00084819581019695838483CD0101969587FA
:1004B0008487CC91208531858217930740F4CF0142
:1004C00070E060E050D78C2F90E0CF910895868146
:1004D000978195878487F3CF84819581892B01F358
:1004E0008FEF9FEFCF9108956F927F928F929F929F
:1004F000AF92BF92CF92DF92EF92FF920F931F9332
:10050000CF93DF936C017B014A013901FC01A68482
:10051000B784F89441155105B9F08A01A801B701D3
:10052000C60135DEEC01892B01F1A114B10419F0EB
:10053000C601F501099578940C1B1D0BEC0EFD1EF0
:10054000F8940115110551F7C4017894DF91CF910A
:100550001F910F91FF90EF90DF90CF90BF90AF90E1
:100560009F908F907F906F900895B301C601DED663
:10057000892BA1F2C401801B910BE7CFADC1FC0117
:1005800081E0808312821182158216820895CF93B2
:10059000DF93EC01F8947A836983FB018481958170
:1005A0009C838B831D82CE019ED182E088837894C8
:1005B00090E080E0DF91CF910895CF93DF93EC013D
:1005C000F89414D21D821A82198281E0888378946B
:1005D000DF91CF910895F894E1E0F0E0062E01C09C
:1005E000EE0F0A94EAF7DC0115962C9115972E2B45
:1005F00015962C9316D2789408950596A4CE2FEFD5
:100600003FEF0596A0CE47966FCF2FEF3FEF47966F
:100610006BCF05965DCE6FEF7FEF059659CE47966F
:10062000F6CE4FEF5FEF4796F2CE6130710519F0CD
:100630008CEE9FEF089590E080E008952CC3EF9238
:10064000FF920F931F93CF93DF93EC019B017A01ED
:10065000FC0183E191E081939193FB83EA8381E044
:100660008C83BE01675D7F4F8E0140E150E0CE017B
:100670000596E8DDBE01675C7F4F970140E150E0E1
:10068000CE014796AADEDF91CF911F910F91FF9087
:10069000EF9008951F93CF93DF93EC01162F898578
:1006A0009A85892B51F0612FCE010596E5DD97FDE6
:1006B0000EC0DF91CF911F91089564E0CE010296A4
:1006C00089D6612FCE010596D7DD97FFF2CF60E086
:1006D000CE010296DF91CF911F917CC60F931F939D
:1006E000CF93DF938C014796D2DEEC0197FD06C0D5
:1006F000CE01DF91CF911F910F91089568E0C8015D
:10070000029668D6CE01DF91CF911F910F91089587
:10071000109269001DBA08950895FC01808185B981
:10072000818184B9828188B9838187B984818BB9B9
:1007300085818AB908951F920F920FB60F921124E6
:100740002F933F934F935F936F937F938F939F93D9
:10075000AF93BF93EF93FF9381E080931103B7D2E0
:100760001092110354D4811162D4FF91EF91BF9183
:10077000AF919F918F917F916F915F914F913F9139
:100780002F910F900FBE0F901F90189582E084BD9F
:1007900085BD9FE797BD16BC85BB80936E0008950D
:1007A0001F920F920FB60F9211242F933F934F93E6
:1007B0005F936F937F938F939F93AF93BF93EF93C9
:1007C000FF9381E080931103E0917802F091790228
:1007D0000680F781E02D87E792E0099510921103DA
:1007E00016D4811124D4FF91EF91BF91AF919F91C5
:1007F0008F917F916F915F914F913F912F910F90CA
:100800000FBE0F901F9018951F920F920FB60F9268
:1008100011242F933F934F935F936F937F938F9305
:100820009F93AF93BF93EF93FF9381E08093110366
:10083000E0917802F09179020184F285E02D87E75A
:1008400092E0099510921103E2D38111F0D3FF9148
:10085000EF91BF91AF919F918F917F916F915F9138
:100860004F913F912F910F900FBE0F901F901895B1
:100870001F920F920FB60F9211242F933F934F9315
:100880005F936F937F938F939F93AF93BF93EF93F8
:10089000FF9381E080931103E0917802F091790257
:1008A0000484F585E02D87E792E009951092110305
:1008B000AED38111BCD3FF91EF91BF91AF919F91C6
:1008C0008F917F916F915F914F913F912F910F90F9
:1008D0000FBE0F901F90189587E792E050DE82E0E0
:1008E00080937D0208958F929F92AF92BF92CF9294
:1008F000DF92EF92FF92CF93DF9300D000D01F9250
:10090000CDB7DEB79C01DC018C91813081F00F9076
:100910000F900F900F900F90DF91CF91FF90EF907D
:10092000DF90CF90BF90AF909F908F90089585E01B
:10093000E0E0F1E0DE01119601900D928A95E1F779
:10094000D9011196ED91FC9180809180A280B380B5
:10095000FE01319690E0C12C84E2D82E84EFE82E7F
:10096000F12C81919F5FB701A60104C07695679530
:10097000579547958A95D2F784169506A606B70629
:1009800099F1953071F79DE141E050E0B2E02737F1
:100990003B0739F1F901638174817093870060939B
:1009A000860086E1849FF001859FF00D1124E35DB0
:1009B000FE4FA081B18182E08C93A281B3819C9390
:1009C000D90111968D919C91DC0116968D919C9187
:1009D000892B09F49CCF0288F389E02D81E0808384
:1009E00096CF50E040E0D6CF9861CECF21E030E006
:1009F0008757924099F086E1829FF001839FF00D26
:100A00001124E35DFE4FA081B1811C92A281B381CC
:100A10001C920288F389E02D1082089530E020E0D6
:100A2000EACFAF92BF92CF92DF92EF92FF920F93F5
:100A30001F93CF93DF93E62FF0E0DC011196CD9169
:100A4000DC91DF01AA0FBB1F9D012E0F3F1FC20FBC
:100A5000D31FB88401E010E0C2E087379C0709F497
:100A60009CC026E1209FE001219FD00D1124C35D91
:100A7000DE4F0990D881C02DA880262F220F77E065
:100A8000721B21E030E0790101C0EE0C7A95EAF7A3
:100A900073E0C72ED12CCE1ADF0ACC0C01C0220F76
:100AA000CA94EAF72E29322F30953A21388331E063
:100AB000B31609F46EC032E0B31609F457C06130C2
:100AC00009F45AC0623009F444C026E1209FE001D5
:100AD000219FD00D1124C35DDE4F2C813D816E819D
:100AE0007F81E9015883EB014883AF014F5F5F4F7E
:100AF00021E030E001C0220F4A95EAF746E1409F2D
:100B0000E001419FD00D1124BE01635D7E4FEB01DA
:100B100048895989EA012883EC0189819A81EA0F81
:100B2000FB1FE80FF91F81859285892B39F0DB01C6
:100B30005296ED91FC918081282B2083DF91CF91FB
:100B40001F910F91FF90EF90DF90CF90BF90AF90EB
:100B5000089526E1209FE001219FD00D1124C35D5F
:100B6000DE4F2C853D856E857F85BBCF3881232B5D
:100B70002883613009F0A6CF26E1209FE001219F64
:100B8000D00D1124C35DDE4F288539856A857B85AC
:100B9000A8CF2881E22AE88292CF10E000E061CF5E
:100BA000E1ECF0E080818062808308951F920F92D3
:100BB0000FB60F9211242F933F934F935F936F9330
:100BC0007F938F939F93AF93BF93EF93FF9381E0B6
:100BD000809311038091C000982F9C7141F060E2D6
:100BE00082FF60E084FD1EC080E892E0F3D3609154
:100BF000C6008EE792E04EDD1092110308D28111FB
:100C000016D2FF91EF91BF91AF919F918F917F91FC
:100C10006F915F914F913F912F910F900FBE0F9069
:100C20001F9018956064E0CF1F920F920FB60F923D
:100C300011242F933F934F935F936F937F938F93E1
:100C40009F93AF93BF93EF93FF9381E08093110342
:100C50008EE792E043DD97FD18C08093C6001092A6
:100C60001103D5D18111E3D1FF91EF91BF91AF91E4
:100C70009F918F917F916F915F914F913F912F91B4
:100C80000F900FBE0F901F9018958091C1008F7D1F
:100C90008093C100E4CF40ED55E070E060E08EE766
:100CA00092E0CDCCCF93DF93C7ECD2E081E0888394
:100CB0001A821982B4D3E3D366E471E08AEC92E03D
:100CC000F6D182E088837894DF91CF91089568C04F
:100CD000CF93DF93DC0119963C932E9318971796C8
:100CE0005C934E9316971B961C921E921A97E09156
:100CF000D102F091D202248135812617370750F4B2
:100D0000621B730B0190F081E02D24813581261741
:100D10003707B0F315967C936E9314971196FC9356
:100D2000EE93C281D3811396DC93CE931297B9834D
:100D3000A883B383A28384819581861B970B9583B7
:100D400084838FEF9FEF9093D6028093D502DF913B
:100D5000CF910895CF93DF93FC01A081B1811496C8
:100D60008D919C91159724813581820F931F159643
:100D70009C938E931497C281D381B983A883A08159
:100D8000B1811396DC93CE931297118210828FEF6C
:100D90009FEF9093D6028093D502DF91CF91089573
:100DA0000F931F93CF93DF938091D7029091D80236
:100DB00001969093D8028093D702C091D102D0912E
:100DC000D20282E0C13DD80741F18C819D8101971B
:100DD0009D838C830FEF1FEF1EC0EA81FB8188810A
:100DE000998191838083A881B9811396FC93EE93B6
:100DF00012971982188268857985EE81FF81CE016C
:100E000009958A859B85009769F4C091D102D0919C
:100E1000D2028C819D81892B01F3DF91CF911F91AB
:100E20000F910895E091D102F091D2022481358191
:100E30002817390750F4821B930B0190F081E02DA5
:100E40002481358128173907B0F39D838C83F9837A
:100E5000E883A281B381BB83AA83CD93DC93D38340
:100E6000C28324813581281B390B35832483109359
:100E7000D6020093D502C9CFCF93DF93DB011F9633
:100E80008C911F978430F1F180F5882359F18330DC
:100E900031F45296ED91FC915397118210828FEFAD
:100EA0009FEF53969C938E9352971F961C921F9779
:100EB0001B96ED91FC911C9714969C9114970190B0
:100EC000F081E02D84818917D0F71196FC93EE9381
:100ED000C281D3811396DC93CE931297B983A883F2
:100EE000B383A283DF91CF910895873059F08C307E
:100EF00049F08530A1F65296ED91FC91539784818B
:100F00008F5F84831296ED91FC9113978D919C9144
:100F1000119791838083CD91DC911197FB83EA83B4
:100F2000BECFCF93DF93DC011F961C921F971B96B9
:100F3000ED91FC911C9714968C9114970190F0817F
:100F4000E02D94819817D0F71196FC93EE93C2810F
:100F5000D3811396DC93CE931297B983A883B3837E
:100F6000A283CD01DF91CF910895CF93DF93EAEC77
:100F7000F2E065817681DB011F968C9380819181FF
:100F8000EC01A881B981B183A0831396FC93EE9301
:100F9000129721E02F87968385837ED2DF91CF91B0
:100FA0000895FF920F931F93CF93DF93CDB7DEB7D2
:100FB0002C970FB6F894DEBF0FBECDBFF82E009170
:100FC000CF021091D0026F3F7607F1F098014CE309
:100FD00057E0CE0101967CDE8F2DC7DF89819A8193
:100FE000892B19F0CE010196B5DEF801828993892B
:100FF0002C960FB6F894DEBF0FBECDBFDF91CF9118
:101000001F910F91FF9008958F2DAFDFEECFA0912C
:10101000CA02B091CB02E091CF02F091D00281E000
:1010200014962C919481921708F080E00895CF9344
:10103000DF93A091CF02B091D0024091CA025091AB
:10104000CB02EA01E881F981F093CB02E093CA0276
:101050008AEC92E09383828381E08F875093D00261
:101060004093CF021F961C921F971B96ED91FC9107
:101070001C9714962C9114970190F081E02D948187
:101080002917D0F31196FC93EE93828193811396E6
:101090009C938E931297EC01B983A883B383A283A8
:1010A000BD01CA01F9D1DF91CF910895FFCFDF9241
:1010B000EF92FF920F931F93CF93DF93CDB7DEB7DD
:1010C0002B970FB6F894DEBF0FBECDBF8C017B010E
:1010D0009093C9028093C802FC01148E138E72A3F0
:1010E00061A3DD24D394D0921103918380839383F1
:1010F000828314824796908F878B928F818F158E73
:10110000168E178E10A240979087878392878187CB
:101110008FEF9FEF94878387168615862091D702DD
:101120003091D8022787308B118A128A138A148A49
:10113000158A168AEF5BFF4F11821082B8016D5D30
:101140007F4F20E841E551E0C8012AD0F80196839D
:101150008583FC01D7868CE491E09A838983F7012B
:10116000828193819C838B83848195819E838D83EF
:10117000DF8286E598E0998788871B861A86CE01EC
:1011800001969ED02B960FB6F894DEBF0FBECDBF52
:10119000DF91CF911F910F91FF90EF90DF90089515
:1011A000CF93DF93FB01248332E03787108A948743
:1011B0008387258F148E138E128E21E0218B568704
:1011C00045879B01295F3F4FAC01495E5F4F5087C8
:1011D0004783EC01A98DBA8DB287A1872D933C93EB
:1011E0003A8F298FCB014496958B848B0296978BEF
:1011F000868B918F808FCB01DF91CF910895CF9314
:10120000DF93DC0114962D913C911597F9017E979F
:10121000E901E397D683C58317969C911797189693
:101220008C9118979A8B898B19969C9119971A967D
:101230008C911A97988B8F878BE79AE09B8B8C8B7E
:1012400016968C9116974D915C91848392E09787C6
:10125000108A6AEC72E074876387858F148E138E10
:10126000128E81E0818B56874587D901579781EE91
:1012700092E011969C938E93EB01898D9A8D139633
:101280009C938E931297EC01B983A883EB01BA8FDC
:10129000A98F1D960B2E11960C921197AC93129656
:1012A0000B2E11960C921197AC930A2E1B2E1396AF
:1012B0001C920E9211241297CF01DF91CF910895C5
:1012C0009EDF2FCE0F931F93CF93DF93C091CF025A
:1012D000D091D0029B8B8A8B8E010C5E1F4F8C8924
:1012E0009D890817190759F0FC01208131813D8B38
:1012F0002C8B17DE8C899D8980179107A9F7898926
:1013000081110CC0E985FA858F819885918380834E
:10131000AF81B8851396FC93EE9312978FE0DF911F
:10132000CF911F910F9121CEF894CCCFCF93DF9323
:10133000E091CF02F091D0026115710579F09183AF
:101340008083EC01AA81BB81B383A283ED93FC93DC
:10135000FB83EA8384E0DF91CF9123CE8FEF9FEF71
:10136000DF91CF910895CF93DF93FC01808191812C
:10137000E817F90771F0EC01A881B981B183A08366
:101380001396FC93EE9312977B8B6A8BDF91CF9130
:10139000C8CDDF91CF910895FC0191838083938321
:1013A0008283158214820895FC01828D682B628FDE
:1013B00087858A3059F08B3009F008958289682337
:1013C0008613FBCF138A128ACF01ABCD82896823A3
:1013D000C9F70895EF92FF921F93CF93DF937C019B
:1013E000162FFC01C081D1818C179D0791F08D8152
:1013F000812B8D83112319F08E81812321F06C8143
:101400008A819B81D1DF0990D881C02DEC16FD0621
:1014100071F7DF91CF911F91FF90EF900895EDE06C
:10142000F3E087EE91E09183808387E692E09383F7
:1014300082830895F894E0910F03F09110039F01C7
:10144000281B390BC9017195619571098623972372
:101450009C01241B350B40910D0350910E03241762
:10146000350748F0E217F30730F03093100320936C
:101470000F037894089590E080E078940895E7E66B
:10148000F2E08AE19AE091838083138212821582CE
:1014900014828DE692E080CF2F923F924F925F921E
:1014A0006F927F928F929F92AF92BF92CF92DF9274
:1014B000EF92FF920F931F93CF93DF93FB010DB633
:1014C00005820EB60682FC0105800DBE06800EBEAA
:1014D000DF91CF911F910F91FF90EF90DF90CF9010
:1014E000BF90AF909F908F907F906F905F904F9044
:1014F0003F902F9008957894C201F101099514CF7F
:10150000089585B195E0892785B90895CF93DF9334
:10151000CDB7DEB72E970FB6F894DEBF0FBECDBFA6
:101520000E946300BFDB8EE0E5E0F1E0DE01119692
:1015300001900D928A95E1F7BE016F5F7F4F87E7BB
:1015400092E025D842E350E060E087E792E043D89C
:101550008091750290917602883E9340C9F787E7A3
:1015600092E02BD8F5CFABE0B0E0E8EBFAE0C4C2F4
:101570006C017B013A01FC0117821682838181FF95
:10158000FFC0CE0101964C01F601B380F701B3FC18
:101590000591B3FE01917F01002341F1053239F439
:1015A000B3FC0591B3FE01917F01053239F5B60117
:1015B000802F90E02CD353013501E6CF1068F7015E
:1015C000B3FC0591B3FE01917F0117FD0DC000230F
:1015D00069F0602F70E08FE690E0C9D2892B79F72F
:1015E000033251F00C3651F301110AC0F601868125
:1015F00097812B96EEE09CC210E1E1CF10E0E5CFA1
:10160000602F70E088E690E0B2D2892B49F0530158
:10161000F4E0AF0EB11CB6018FE390E0F8D2CCCF6E
:10162000033609F452C0033709F459C0033509F4ED
:1016300055C0043619F0093609F070C0530117FF80
:1016400062C0F4E0AF0EB11CF30160817181828150
:1016500093811F7E97FF08C0909580957095619546
:101660007F4F8F4F9F4F10642AE030E0A40117D3C3
:10167000082F081916FF04C0B6018DE290E0C7D20A
:1016800014FF13C0FE01E00FF11D8081803369F06B
:10169000B60180E390E0BBD212FF07C01072812F29
:1016A00090E0B601885A9F4FB2D2015010E00F5F10
:1016B0001F4F080D191DF80182918F01B60190E0AE
:1016C000A6D208151905B9F777CF530182E0A80E05
:1016D000B11CB601F30180819181A0CF116053014B
:1016E000F2E0AF0EB11CF30160807180F30110FDD8
:1016F000859110FF81913F01882309F45DCFB601E8
:1017000090E085D2F3CFF2E0AF0EB11CF30160811F
:101710007181072E000C880B990B9BCF003709F1C4
:1017200040F4083501F10F3609F060CF28E030E0D1
:101730000CC0053739F0083709F058CF146220E1A2
:1017400030E003C01F7E2AE030E0530117FF0FC0D6
:10175000F4E0AF0EB11CF30160817181828193814D
:1017600085CF1061EBCF146020E132E0EECFF2E0E4
:10177000AF0EB11CF3016081718190E080E076CF03
:101780008FEF9FEF36CF20FD09C0FC0123FD05C080
:1017900022FF02C07383628351834083089544FD16
:1017A00017C046FD1DC0DB01FC01AA0FBB1FEE1FC9
:1017B000FF1F1094D1F76A0F7B1F8E1F9F1F660FAC
:1017C000771F881F991F620F711D811D911D08953C
:1017D00033E0660F771F881F991F3150D1F7F3CF81
:1017E00034E0F7CF0F931F93CF93DF938C01C801A1
:1017F000D2D1EC0197FD06C0B2D1892BC1F7B80157
:10180000CE0135D2CE01DF91CF911F910F91089576
:101810008F929F92AF92BF92EF92FF920F931F937E
:10182000CF93DF938C01D62F7A01B22EB4D19C01D5
:1018300033272B32310529F02D323105A1F468947C
:10184000B7F8D15061F480E0DF91CF911F910F91F3
:10185000FF90EF90BF90AF909F908F900895C80138
:101860009AD197FDF0CFCB2DCD7F2B2D2073E9F4AE
:101870008033D9F4AA24AA94AD0E79F0C8018BD193
:1018800097FD0BC0282F2F7D283559F4C264D25004
:1018900021F0C80180D197FF08C0812C912C540100
:1018A0001AC0B6FE29C0C260DA2D812C912C5401D9
:1018B00020ED280F283018F1C4FD09C02A30F8F0B7
:1018C000C6FF05C02F7D3FEE320F3630B8F0B801AD
:1018D000CED1C1FFB8CFC7FF08C0B094A0949094F8
:1018E0008094811C911CA11CB11C2C2FB501A4015A
:1018F000C70149DF81E0A8CFC261D6CF27504C2F66
:10190000C501B4014CDF4B015C01C260D15019F339
:10191000C80141D197FFCCCFDCCFB0E0A0E0E2E935
:10192000FCE0E9C06C01EB015A01FC011782168250
:10193000512CF601F380FE01F3FC8591F3FE8191B9
:10194000182FEF018823C9F090E009D1892B19F0F5
:10195000C60148DFEECF153241F4FE01F3FC1591CC
:10196000F3FE1191EF01153259F4C60114D197FD20
:1019700098C01817F1F2B6017AD1852D90E095C084
:1019800000E01A3231F4F3FC1591F3FE1191EF01EE
:1019900001E0E12C20ED210F2A3038F101FF34C0A5
:1019A000EE2059F3183699F11C3609F43AC0112388
:1019B00021F3612F70E08FE790E0D9D0892BE9F215
:1019C000912C812C00FD06C0F50180809180C5011D
:1019D00002965C011E3669F5F6014681578170E07A
:1019E00060E0202FC401CFDEA4CF02606E2D70E036
:1019F00090E080E040E2D3DEE62EFE01F3FC15919C
:101A0000F3FE1191EF01C6CFEE24EA94CBCFFE0195
:101A1000F3FC1591F3FE1191EF01183609F0C7CFD1
:101A200008600460FE01F3FC1591F3FE1191EF01D3
:101A3000BECF1336B9F401FD02C0EE24E394C60113
:101A4000AAD097FD2EC08114910429F0F40180835F
:101A5000C40101964C01EA94E110F1CF00FD69CF79
:101A6000539467CFC601BEDE97FD1BC01F3609F435
:101A70003DC030F4143641F0193639F0006405C029
:101A8000133711F11537D1F70062202FA4016E2D05
:101A9000C601BEDE8111E2CFF6018381807309F4B5
:101AA0006CCF8FEF9FEF511068CFCDB7DEB7EFE06F
:101AB0003EC08114910429F0F4016082C4010196B2
:101AC0004C01EA94EE2059F0C60165D03C0197FD27
:101AD00006C045D0892B69F3B601C301C8D0811473
:101AE000910409F4BBCFF4011082B8CF0061CDCFCF
:101AF0002F923F924F925F926F927F928F929F921E
:101B0000AF92BF92CF92DF92EF92FF920F931F930B
:101B1000CF93DF93CDB7DEB7CA1BDB0B0FB6F894BC
:101B2000DEBF0FBECDBF09942A88398848885F84FC
:101B30006E847D848C849B84AA84B984C884DF806D
:101B4000EE80FD800C811B81AA81B981CE0FD11D51
:101B50000FB6F894DEBF0FBECDBFED010895911111
:101B6000FCC0803219F089508550D0F70895FC01EF
:101B70000590061621F00020D9F7C001089531978D
:101B8000CF010895FB01DC0102C001900D9241508C
:101B90005040D8F70895CF93DF93EC012B8120FFBD
:101BA0001AC026FF0CC02F7B2B838E819F8101964C
:101BB0009F838E838A8190E0DF91CF91089522FFE9
:101BC00018C0E881F9818081082E000C990B0097DC
:101BD00029F420622B838FEF9FEFEECF3196F983AC
:101BE000E8832E813F812F5F3F4F3F832E839927CC
:101BF000E3CFEA85FB85099597FFF3CF2B8101960B
:101C000021F080E2822B8B83E6CF80E1FBCF0F9324
:101C10001F93CF93DF93182F092FEB018B8181FD49
:101C200009C01FEF0FEF812F902FDF91CF911F91F0
:101C30000F91089582FF14C02E813F818C819D8178
:101C4000281739073CF4E881F981CF01019699837F
:101C5000888310838E819F8101969F838E83E3CF3B
:101C6000E885F985812F0995892BA1F3DACFFB014E
:101C7000238120FF11C026FD0FC08F3F980771F010
:101C800082832F7D2064238326813781215031096F
:101C900037832683992708958FEF9FEF0895FA01E0
:101CA000AA27283051F1203181F1E8946F936E7F9B
:101CB0006E5F7F4F8F4F9F4FAF4FB1E03ED0B4E08C
:101CC0003CD0670F781F891F9A1FA11D680F791FCD
:101CD0008A1F911DA11D6A0F711D811D911DA11DDE
:101CE00020D009F468943F912AE0269F11243019EE
:101CF000305D3193DEF6CF010895462F4770405D89
:101D00004193B3E00FD0C9F7F6CF462F4F70405D37
:101D10004A3318F0495D31FD4052419302D0A9F792
:101D2000EACFB4E0A6959795879577956795BA958C
:101D3000C9F700976105710508959B01AC010A2E52
:101D400006945795479537952795BA95C9F7620F29
:101D5000731F841F951FA01D089599278827089534
:041D6000F894FFCF25
:101D6400000306080A19F50000FF00810A010000BB
:101D740000000000000503FF0211030B030F030919
:101D8400030303FD021503FF20FF00FF028000810F
:101D940000890088008B008A000000000036006F74
:101DA40000860063300043017C01E70169646C65CF
:101DB400006D61696E002B043802021E04050709D8
:101DC4000D000F10000000000000001502010001CA
:0C1DD400000000000000050007171B1DA8
:00000001FF
