:1000000044C000005FC000005DC000005BC0000095
:1000100059C0000057C0000055C0000053C0000088
:1000200051C000004FC000004DC000004BC0000098
:1000300049C0000047C000006DC3000043C000007D
:1000400041C000003FC00000A0C30000DCC30000AE
:1000500039C0000037C0000035C0000033C00000C8
:1000600031C000002FC0000045464765666700208C
:100070002B2D2E3031323334353637383968006322
:1000800064696E6F70737578580011241FBECFEFCE
:10009000D8E0DEBFCDBF11E0A0E0B1E0E8E0F1E2E2
:1000A00002C005900D92A438B107D9F725E0A4E865
:1000B000B1E001C01D92AE3EB207E1F70E94420BD3
:1000C0000C9482109DCFF3D284E191E0F1D274D2EE
:1000D000EAD200C04AC3AF92BF92CF92DF92EF92B2
:1000E000FF920F931F93CF93DF93EC016B018A0173
:1000F0008C819D818417950710F40C811D816C857E
:100100007D85E884F984E61AF70A0E151F0598F133
:10011000E016F106D0F0A801C6010E94670F8E819B
:100120009F819D878C878C819D81801B910B9D83F6
:100130008C83C801DF91CF911F910F91FF90EF90B9
:10014000DF90CF90BF90AF900895A701C6010E94A5
:10015000670F5801AE18BF086E817F81A501C601E7
:100160008E0D9F1D0E94670F4E815F814A0D5B1DA2
:100170005D874C87D8CFA801C6010E94670F8C8588
:100180009D85800F911F9D878C87CDCFAF92BF92A9
:10019000CF92DF92EF92FF920F931F93CF93DF9353
:1001A000EC016B018A018C819D818417950710F405
:1001B0000C811D818A859B85E884F984E81AF90AF7
:1001C0000E151F0598F1E016F106D0F0A801B60152
:1001D0000E94670F8E819F819B878A878C819D817A
:1001E000801B910B9D838C83C801DF91CF911F9160
:1001F0000F91FF90EF90DF90CF90BF90AF90089558
:10020000A701B6010E94670F5801AE18BF08B601DA
:100210006E0D7F1DA5018E819F810E94670F4E810B
:100220005F814A0D5B1D5B874A87D8CFA801B60165
:100230000E94670F8A859B85800F911F9B878A8705
:10024000CDCF0F931F93FC0191838083938382838F
:1002500015821482778366837587648773876287C4
:10026000640F751F7187608737872687118B008B16
:100270001F910F910895FC01A285B3858485958512
:10028000A817B907E1F0848195810196958384834D
:10029000CD010196938782876C9322853385808573
:1002A00091852817390720F0868197819387828767
:1002B000CF0170E060E02ED790E080E00895848167
:1002C0009581892B01F38FEF9FEF08950F931F9373
:1002D000CF93DF93EC018B01F89405C0B801CE01F8
:1002E000FCD697FD27C08C819D81892BB9F38C8129
:1002F0009D8101979D838C83EC85FD85CF010196BF
:100300009D878C871081288539858217930720F077
:100310008E819F819D878C87EE85FF85309711F0B8
:10032000CE0109957894812F90E0DF91CF911F91B4
:100330000F9108957894DF91CF911F910F910895B7
:100340006F927F928F929F92AF92BF92CF92DF92E5
:10035000EF92FF920F931F93CF93DF936C017B017A
:100360004A013901FC01A684B784F894411551056E
:10037000B9F08A01A801B701C601ADDEEC01892BF5
:1003800001F1A114B10419F0C601F50109957894A1
:100390000C1B1D0BEC0EFD1EF8940115110551F7F9
:1003A000C4017894DF91CF911F910F91FF90EF904E
:1003B000DF90CF90BF90AF909F908F907F906F9085
:1003C0000895B301C60189D6892BA1F2C401801B0F
:1003D000910BE7CF0F931F93FC019183808393834D
:1003E00082835583448377836683758764877387A5
:1003F0006287640F751F7187608737872687118B27
:10040000008B1F910F910895FF920F931F93CF932D
:10041000DF93EC01F62E8A01F89405C0B801CE01F5
:100420005CD697FD2AC08C819D81892BB9F38C8184
:100430009D8101979D838C83EA85FB85CF01019681
:100440009B878A87F0822A853B858885998528172E
:10045000390720F08E819F819B878A87EE85FF85F3
:10046000309711F0CE010995789490E080E0DF910B
:10047000CF911F910F91FF9008957894DF91CF91C4
:100480001F910F91FF900895CF93FC01A485B5852E
:10049000828593858A179B07E1F084819581019677
:1004A00095838483CD01019695878487CC9120859F
:1004B00031858217930740F4CF0170E060E02AD6BF
:1004C0008C2F90E0CF9108958681978195878487BE
:1004D000F3CF84819581892B01F38FEF9FEFCF912B
:1004E00008956F927F928F929F92AF92BF92CF9218
:1004F000DF92EF92FF920F931F93CF93DF936C01E4
:100500007B014A013901FC01A684B784F8944115A6
:100510005105B9F08A01A801B701C60137DEEC0127
:10052000892B01F1A114B10419F0C601F501099557
:1005300078940C1B1D0BEC0EFD1EF8940115110593
:1005400051F7C4017894DF91CF911F910F91FF90E3
:10055000EF90DF90CF90BF90AF909F908F907F9063
:100560006F900895B301C601B8D5892BA1F2C401DB
:10057000801B910BE7CF0596E3CE2FEF3FEF05965B
:10058000DFCE4796AECF2FEF3FEF4796AACF059627
:100590009DCE6FEF7FEF059699CE479635CF4FEF03
:1005A0005FEF479631CF6130710519F08CEE9FEF08
:1005B000089590E080E008955DC1EF92FF920F935F
:1005C0001F93CF93DF93EC019B017A01FC0180E044
:1005D00091E081939193FB83EA8381E08C83BE0158
:1005E000675D7F4F8E0140E150E0CE01059629DE28
:1005F000BE01675C7F4F970140E150E0CE01479616
:10060000E9DEDF91CF911F910F91FF90EF90089558
:10061000CF93DF93EC01F89434D182E08C8378940B
:1006200090E080E0DF91CF9108951F93CF93DF9307
:10063000EC01162F89859A85892B51F0612FCE0107
:10064000059619DE97FD0EC0DF91CF911F91089599
:1006500064E0CE01029667D7612FCE0105960BDECE
:1006600097FFF2CF60E0CE010296DF91CF911F910C
:100670005AC70F931F93CF93DF938C01479604DFE4
:10068000EC0197FD06C0CE01DF91CF911F910F9134
:10069000089568E0C801029646D7CE01DF91CF9158
:1006A0001F910F910895109269001DBA0895089541
:1006B000FC01808185B9818184B9828188B9838177
:1006C00087B984818BB985818AB90895FC0142304C
:1006D000C9F098F04530B1F0463021F48181682BA3
:1006E000618308954330E9F79181862F80958923AE
:1006F00081838281682B62830895442319F04130FD
:1007000099F308958181609586238183828168238E
:10071000628308951F920F920FB60F9211242F93A8
:100720003F934F935F936F937F938F939F93AF9379
:10073000BF93EF93FF9381E08093ED05F3D0109288
:10074000ED05DED28111ECD2FF91EF91BF91AF9117
:100750009F918F917F916F915F914F913F912F91D9
:100760000F900FBE0F901F90189582E084BD85BD3D
:100770009FE797BD16BC85BB80936E000895E1ECA2
:10078000F0E080818062808308951F920F920FB6FF
:100790000F9211242F933F934F935F936F937F9307
:1007A0008F939F93AF93BF93EF93FF9381E08093D9
:1007B000ED058091C000982F9C7141F060E282FFAE
:1007C00060E084FD1EC08CE595E0ADD66091C6006A
:1007D0008AE595E02ADF1092ED0592D28111A0D230
:1007E000FF91EF91BF91AF919F918F917F916F9109
:1007F0005F914F913F912F910F900FBE0F901F90DF
:1008000018956064E0CF1F920F920FB60F921124DB
:100810002F933F934F935F936F937F938F939F9308
:10082000AF93BF93EF93FF9381E08093ED058AE54B
:1008300095E01FDF97FD18C08093C6001092ED056C
:100840005FD281116DD2FF91EF91BF91AF919F91D6
:100850008F917F916F915F914F913F912F910F9069
:100860000FBE0F901F9018958091C1008F7D8093CF
:10087000C100E4CF4FEB53E070E060E08AE595E023
:100880009CCE6115710521F08A55954089F0089537
:100890008A559540E1F783E38093C4001092C50028
:1008A00082E08093C00088E98093C10086E01CC08C
:1008B000FB0180818093C40081818F708093C5008B
:1008C00082E08093C00088E98093C10082818130FA
:1008D00091F078F0823059F0843041F78091C10076
:1008E00084608093C10086E08093C200089584E014
:1008F000FBCF80E0F9CF82E0F7CFCF93DF93C3EA5D
:10090000D5E081E088831A82198232D661D66DE102
:1009100071E086EA95E053D282E088837894DF9193
:10092000CF91089568C0CF93DF93DC0119963C9373
:100930002E93189717965C934E9316971B961C92BE
:100940001E921A97E091AD05F091AE052481358194
:100950002617370750F4621B730B0190F081E02DCE
:100960002481358126173707B0F315967C936E9353
:1009700014971196FC93EE93C281D3811396DC9366
:10098000CE931297B983A883B383A2838481958180
:10099000861B970B958384838FEF9FEF9093B2050F
:1009A0008093B105DF91CF910895CF93DF93FC0140
:1009B000A081B18114968D919C91159724813581E8
:1009C000820F931F15969C938E931497C281D381A7
:1009D000B983A883A081B1811396DC93CE9312973B
:1009E000118210828FEF9FEF9093B2058093B10533
:1009F000DF91CF9108950F931F93CF93DF93809151
:100A0000B3059091B40501969093B4058093B30516
:100A1000C091AD05D091AE0585E0CD3AD80741F142
:100A20008C819D8101979D838C830FEF1FEF1EC0EA
:100A3000EA81FB818881998191838083A881B98132
:100A40001396FC93EE931297198218826885798524
:100A5000EE81FF81CE0109958A859B85009769F417
:100A6000C091AD05D091AE058C819D81892B01F39C
:100A7000DF91CF911F910F910895E091AD05F09115
:100A8000AE05248135812817390750F4821B930B5A
:100A90000190F081E02D2481358128173907B0F3CA
:100AA0009D838C83F983E883A281B381BB83AA836E
:100AB000CD93DC93D383C28324813581281B390BEA
:100AC000358324831093B2050093B105C9CFCF932A
:100AD000DF93DB011F968C911F978430F1F180F535
:100AE000882359F1833031F45296ED91FC9153975C
:100AF000118210828FEF9FEF53969C938E935297A3
:100B00001F961C921F971B96ED91FC911C971496B3
:100B10009C9114970190F081E02D84818917D0F782
:100B20001196FC93EE93C281D3811396DC93CE93FE
:100B30001297B983A883B383A283DF91CF910895DD
:100B4000873059F08C3049F08530A1F65296ED91FE
:100B5000FC91539784818F5F84831296ED91FC9171
:100B600013978D919C91119791838083CD91DC9106
:100B70001197FB83EA83BECFCF93DF93DC011F96EF
:100B80001C921F971B96ED91FC911C9714968C91CB
:100B900014970190F081E02D94819817D0F7119669
:100BA000FC93EE93C281D3811396DC93CE9312977C
:100BB000B983A883B383A283CD01DF91CF91089538
:100BC000CF93DF93E6EAF5E065817681DB011F963E
:100BD0008C9380819181EC01A881B981B183A0833C
:100BE0001396FC93EE93129721E02F8796838583CB
:100BF000FCD4DF91CF910895FF920F931F93CF9371
:100C0000DF93CDB7DEB72C970FB6F894DEBF0FBEDB
:100C1000CDBFF82E0091AB051091AC056F3F760764
:100C2000F1F0980147E655E0CE0101967CDE8F2D6C
:100C3000C7DF89819A81892B19F0CE010196B5DE33
:100C4000F801828993892C960FB6F894DEBF0FBE07
:100C5000CDBFDF91CF911F910F91FF9008958F2D00
:100C6000AFDFEECFCF93DF93DC01C091AB05D09126
:100C7000AC0553967C936E93529714962C911497CF
:100C80009C819217E8F01F961C921F971B96ED917E
:100C9000FC911C970190F081E02D84818217D0F7A0
:100CA0001196FC93EE93C281D3811396DC93CE937D
:100CB0001297B983A883B383A283DF91CF9108955C
:100CC0001F86EB85FC850190F081E02D84819817CB
:100CD000D0F3CD01F983E883A281B381BB83AA83DA
:100CE000CD93DC93D383C28321E0FC0127879093CB
:100CF000AC058093AB05BE0178D4DF91CF91089508
:100D0000A091A605B091A705E091AB05F091AC05C7
:100D100081E014962C919481921708F080E0089558
:100D2000CF93DF93A091AB05B091AC054091A605A0
:100D30005091A705EA01E881F981F093A705E093B6
:100D4000A60586EA95E09383828381E08F8750939E
:100D5000AC054093AB051F961C921F971B96ED9117
:100D6000FC911C9714962C9114970190F081E02D22
:100D700094812917D0F31196FC93EE93828193818D
:100D800013969C938E931297EC01B983A883B38337
:100D9000A283BD01CA0129D4DF91CF910895A0910A
:100DA000A605B091A705E091AB05F091AC051496AE
:100DB0009C918481891708F00895B2CFFFCFDF920C
:100DC000EF92FF920F931F93CF93DF93CDB7DEB7D0
:100DD0002B970FB6F894DEBF0FBECDBF8C017B0101
:100DE0009093A5058093A405FC01148E138E72A325
:100DF00061A3DD24D394D092ED0591838083938306
:100E0000828314824796908F878B928F818F158E65
:100E1000168E178E10A240979087878392878187BE
:100E20008FEF9FEF94878387168615862091B305F1
:100E30003091B4052787308B118A128A138A148A5D
:100E4000158A168AEF5BFF4F11821082B8016D5D23
:100E50007F4F20E84FE251E0C8012AD0F801968385
:100E60008583FC01D78683E291E09A838983F70129
:100E7000828193819C838B83848195819E838D83E2
:100E8000DF828EED96E0998788871B861A86CE01D1
:100E900001969ED02B960FB6F894DEBF0FBECDBF45
:100EA000DF91CF911F910F91FF90EF90DF90089508
:100EB000CF93DF93FB01248332E03787108A948736
:100EC0008387258F148E138E128E21E0218B5687F7
:100ED00045879B01295F3F4FAC01495E5F4F5087BB
:100EE0004783EC01A98DBA8DB287A1872D933C93DE
:100EF0003A8F298FCB014496958B848B0296978BE2
:100F0000868B918F808FCB01DF91CF910895CF9306
:100F1000DF93DC0114962D913C911597F9017E9792
:100F2000E901E397D683C58317969C911797189686
:100F30008C9118979A8B898B19969C9119971A9670
:100F40008C911A97988B8F8784E29BE09B8B8C8B7C
:100F500016968C9116974D915C91848392E09787B9
:100F6000108A66EA75E074876387858F148E138E06
:100F7000128E81E0818B56874587D90157978DEB7B
:100F800095E011969C938E93EB01898D9A8D139623
:100F90009C938E931297EC01B983A883EB01BA8FCF
:100FA000A98F1D960B2E11960C921197AC93129649
:100FB0000B2E11960C921197AC930A2E1B2E1396A2
:100FC0001C920E9211241297CF01DF91CF910895B8
:100FD0009EDFD2CD0F931F93CF93DF93F8946E5182
:100FE0007109EC01C60FD71FFE017597FE83ED83D3
:100FF000228B318B008B178784E29BE0938B848B51
:101000004C8382E08F87188AE6EAF5E0FC87EB875D
:101010004D8F1C8E1B8E1A8E81E0898B88E291E0A9
:101020009E878D87CE0107962DEB35E038872F837D
:10103000A18DB28DBA87A9878D939C93928F818F52
:101040000D969D8B8C8B02969F8B8E8B998F888FA4
:1010500070E060E0CE0106DE7894CE01DF91CF91A2
:101060001F910F9108950F931F93CF93DF93C0911A
:10107000AB05D091AC059B8B8A8B8E010C5E1F4F0C
:101080008C899D890817190759F0FC01208131814D
:101090003D8B2C8B71DD8C899D8980179107A9F779
:1010A000898981110CC0E985FA858F8198859183A2
:1010B0008083AF81B8851396FC93EE9312978FE0EF
:1010C000DF91CF911F910F917BCDF894CCCFF89405
:1010D000BC0188E091DD78940895CF93DF93E0918F
:1010E000AB05F091AC056115710579F091838083B2
:1010F000EC01AA81BB81B383A283ED93FC93FB83B4
:10110000EA8384E0DF91CF9177CD8FEF9FEFDF917E
:10111000CF910895CF93DF93FC0180819181E817EF
:10112000F90771F0EC01A881B981B183A08313960E
:10113000FC93EE9312977B8B6A8BDF91CF911CCD42
:10114000DF91CF910895FC01918380839383828303
:101150001582148208950F931F93CF93DF93EC01B0
:101160000091AB051091AC05EC81FD81309709F43D
:101170007EC0D80114968C919481981750F4848382
:101180008785863009F485C0873071F1882309F49A
:101190005BC09E01FE0107C09481D80114968C911A
:1011A000981708F462C00190F081E02DCE17DF0798
:1011B00099F7F80131832083D9011296ED91FC91C2
:1011C000D8011396FC93EE93129711830083F901D3
:1011D000138302835396DC93CE93529786E0DF917C
:1011E000CF911F910F91ECCC22813381808191812D
:1011F000D9018D939C9380819181DC0113963C935E
:101200002E93129722893389D90107C014969C9195
:1012100014978481981708F478C00D90BC91A02D84
:101220002A173B0799F731832083D90112968D91B4
:101230009C9193838283DC01ED93FC93D9011396F7
:10124000FC93EE931297A5CF228133818081918107
:10125000D9018D939C9380819181DC0113963C93FD
:101260002E931297CF0188DC94CF9F01A2CF1D83CC
:101270000C83D8015B968D919C915C979F838E83A4
:101280005C96DC93CE935B97DF91CF911F910F918A
:1012900008952281338180819181D9018D939C931E
:1012A00080819181DC0113963C932E9312972289C1
:1012B0003389D90106C014969C911497848198179C
:1012C00030F10D90BC91A02D2A173B07A1F7318377
:1012D0002083D90112968D919C9193838283DC01A6
:1012E000ED93FC93D9011396FC93EE931297028829
:1012F000F389E02D0480F581E02DD80114968C91BE
:101300009481981708F43BCF44CF9D018CCF9D0169
:10131000DECFF89420DF78940895CF93DF93C091C7
:10132000AB05D091AC05F894DC011696ED91FC91DB
:101330001797FC8FEB8F2D913C912817390781F17E
:101340003D8D309779F0A081B181EA17FB0729F034
:1013500014962C91321708F4322F0680F781E02D75
:10136000309789F7FC013C83A081B181CD91DC915C
:101370001197D183C0839B838A83B583A4835B96B3
:101380008D919C915C97978386835C96FC93EE93FA
:101390005B97CD01F1DB03DD7894DF91CF91089568
:1013A000F901158214827894DF91CF910895CF933B
:1013B000DF93EC012091AB053091AC05EE81FF810C
:1013C000D9015C96FC93EE935B97A881B981A8172D
:1013D000B90761F1D9015D969C91309779F0A081B0
:1013E000B181EA17FB0729F014968C91981708F43D
:1013F000982F0680F781E02D309789F7F9019483C3
:10140000E881F981A081B181B983A8831396DC9327
:10141000CE931297FD83EC83838D948D9F838E836F
:10142000D48FC38FCF01DF91CF91A6CB15961C929D
:101430001E921497DF91CF910895FC0191838083D0
:10144000938382830895CF93DF93FC01F894808186
:101450009181E817F90761F0EC01A881B981B183A6
:10146000A0831396FC93EE93129770E060E0FADB92
:101470007894DF91CF910895EF92FF920F931F938D
:10148000CF93DF938C01C091AB05D091AC05EB8C71
:10149000FC8CC7018CDF1B8B0A8BD801F80104C0C0
:1014A00094818C81981718F10190F081E02D0E172E
:1014B0001F07B1F7B983A8831296ED91FC9113979A
:1014C000FB83EA83D183C0831396DC93CE93129778
:1014D00087E076DB0A88DB89C02DC7013CDECE01C0
:1014E000DF91CF911F910F91FF90EF900895DF0151
:1014F000E1CFF894C1DF78940895FC01828D682BC8
:10150000628F87858A3059F08B3009F0089582897F
:1015100068238613FBCF138A128ACF012DCB8289D1
:101520006823C9F70895EF92FF921F93CF93DF933B
:101530007C01162FFC01C081D1818C179D0791F091
:101540008D81812B8D83112319F08E81812321F0D0
:101550006C818A819B81D1DF0990D881C02DEC16E6
:10156000FD0671F7DF91CF911F91FF90EF900895E5
:10157000E9EEF5E08FEE91E0918380838FE692E0D3
:10158000938382830895F894E091EB05F091EC0544
:101590009F01281B390BC90171956195710986233B
:1015A00097239C01241B350B4091E9055091EA05D6
:1015B0002417350748F0E217F30730F03093EC05B5
:1015C0002093EB057894089590E080E07894089556
:1015D000EFE6F2E083EC9AE091838083138212823B
:1015E0001582148285E792E0AECD2F923F924F9202
:1015F0005F926F927F928F929F92AF92BF92CF92A3
:10160000DF92EF92FF920F931F93CF93DF93FB0133
:101610000DB605820EB60682FC0105800DBE068061
:101620000EBEDF91CF911F910F91FF90EF90DF9051
:10163000CF90BF90AF909F908F907F906F905F9072
:101640004F903F902F9008957894C201F101099531
:101650003CCD08958CE494E076DD88E494E0EDDE02
:1016600084E494E0EADE8AE594E090935704809362
:101670005604909359048093580410925504109284
:1016800054040895CF93DF9300D01F92CDB7DEB7F7
:1016900080E190E09A83898383E08B83DBDF0E9483
:1016A00063002BD9BE016F5F7F4F8AE595E00E94F2
:1016B000080343E060E183E290E008D843E068E09B
:1016C00083E290E003D843E064E083E290E00E948C
:1016D000660343E062E083E290E00E94660310E06C
:1016E00000E02EEB3BE040E863EE70E080E693E044
:1016F00071DC2BE13CE040E863EE70E08DE792E0C6
:1017000069DC80E190E0E3DCFCCFCF93DF93EC0178
:101710008CE494E0FEDD809154049091550480386F
:10172000910550F084E494E0E4DE809154049091BB
:10173000550480389105B0F7E0915604F0915704B4
:10174000C193D19325E0EA35F20798F02AE534E019
:101750003093570420935604019690935504809338
:10176000540488E494E06FDE8CE494E0DF91CF9140
:10177000D4CDF0935704E0935604EECFE091AB053F
:10178000F091AC058AE591E09687858709C01B9B9F
:101790000EC01A9B11C0199B14C08BE196E097DC18
:1017A0001C99F5CF84E090E0B0DF1B99F2CF83E085
:1017B00090E0ABDF1A99EFCF82E090E0A6DF1999B5
:1017C000ECCF81E090E0A1DFE8CFCF938CE494E010
:1017D000A0DD8091540490915504009749F488E469
:1017E00094E087DE80915404909155040097B9F3FA
:1017F000E0915804F0915904C081329625E0EA3511
:10180000F207A0F02AE534E03093590420935804FD
:101810000197909355048093540484E494E013DE7C
:101820008CE494E07ADD8C2FCF910895F0935904E5
:10183000E0935804EDCFCF93DF9300D000D01F92F8
:10184000CDB7DEB7E091AB05F091AC058BE691E04A
:1018500096878587CE0101967C010EE711E085E031
:10186000D82E1CC0809143041F928F931F930F9317
:101870001F92DF92FF92EF929FD32FEF3FEF45E051
:1018800050E0B70181E795E00E94710280E190E0AD
:101890001EDC0FB6F894DEBF0FBECDBF809154049E
:1018A00090915504892BF1F290DF80934304DCCFB3
:1018B000ABE0B0E0EDE5FCE0C4C26C017B013A01B5
:1018C000FC0117821682838181FFFFC0CE01019641
:1018D0004C01F601B380F701B3FC0591B3FE019111
:1018E0007F01002341F1053239F4B3FC0591B3FEC9
:1018F00001917F01053239F5B601802F90E02CD39C
:1019000053013501E6CF1068F701B3FC0591B3FE32
:1019100001917F0117FD0DC0002369F0602F70E079
:101920008FE690E0C9D2892B79F7033251F00C365B
:1019300051F301110AC0F601868197812B96EEE0E2
:101940009CC210E1E1CF10E0E5CF602F70E088E6A7
:1019500090E0B2D2892B49F05301F4E0AF0EB11CF4
:10196000B6018FE390E0F8D2CCCF033609F452C031
:10197000033709F459C0033509F455C0043619F08A
:10198000093609F070C0530117FF62C0F4E0AF0ED2
:10199000B11CF30160817181828193811F7E97FF69
:1019A00008C090958095709561957F4F8F4F9F4FA0
:1019B00010642AE030E0A40144D3082F081916FF70
:1019C00004C0B6018DE290E0C7D214FF13C0FE013F
:1019D000E00FF11D8081803369F0B60180E390E073
:1019E000BBD212FF07C01072812F90E0B601885A57
:1019F0009F4FB2D2015010E00F5F1F4F080D191D0D
:101A0000F80182918F01B60190E0A6D20815190560
:101A1000B9F777CF530182E0A80EB11CB601F301EC
:101A200080819181A0CF11605301F2E0AF0EB11C13
:101A3000F30160807180F30110FD859110FF8191A9
:101A40003F01882309F45DCFB60190E085D2F3CF42
:101A5000F2E0AF0EB11CF30160817181072E000C22
:101A6000880B990B9BCF003709F140F4083501F141
:101A70000F3609F060CF28E030E00CC0053739F0B0
:101A8000083709F058CF146220E130E003C01F7E10
:101A90002AE030E0530117FF0FC0F4E0AF0EB11C95
:101AA000F301608171818281938185CF1061EBCFD9
:101AB000146020E132E0EECFF2E0AF0EB11CF30192
:101AC0006081718190E080E076CF8FEF9FEF36CF1D
:101AD00020FD09C0FC0123FD05C022FF02C0738365
:101AE000628351834083089544FD17C046FD1DC0A5
:101AF000DB01FC01AA0FBB1FEE1FFF1F1094D1F7E3
:101B00006A0F7B1F8E1F9F1F660F771F881F991FED
:101B1000620F711D811D911D089533E0660F771FBF
:101B2000881F991F3150D1F7F3CF34E0F7CF0F93CF
:101B30001F93CF93DF938C01C801D2D1EC0197FDA5
:101B400006C0B2D1892BC1F7B801CE0162D2CE0155
:101B5000DF91CF911F910F9108958F929F92AF9235
:101B6000BF92EF92FF920F931F93CF93DF938C015D
:101B7000D62F7A01B22EB4D19C0133272B323105F6
:101B800029F02D323105A1F46894B7F8D15061F4F1
:101B900080E0DF91CF911F910F91FF90EF90BF9068
:101BA000AF909F908F900895C8019AD197FDF0CF84
:101BB000CB2DCD7F2B2D2073E9F48033D9F4AA24CB
:101BC000AA94AD0E79F0C8018BD197FD0BC0282FD8
:101BD0002F7D283559F4C264D25021F0C80180D13C
:101BE00097FF08C0812C912C54011AC0B6FE29C061
:101BF000C260DA2D812C912C540120ED280F283061
:101C000018F1C4FD09C02A30F8F0C6FF05C02F7DC9
:101C10003FEE320F3630B8F0B801FBD1C1FFB8CF7C
:101C2000C7FF08C0B094A09490948094811C911C2C
:101C3000A11CB11C2C2FB501A401C70149DF81E013
:101C4000A8CFC261D6CF27504C2FC501B4014CDFBD
:101C50004B015C01C260D15019F3C80141D197FF1B
:101C6000CCCFDCCFB0E0A0E0E7E3FEE0E9C06C0160
:101C7000EB015A01FC0117821682512CF601F38008
:101C8000FE01F3FC8591F3FE8191182FEF0188236B
:101C9000C9F090E009D1892B19F0C60148DFEECFD9
:101CA000153241F4FE01F3FC1591F3FE1191EF01A1
:101CB000153259F4C60114D197FD98C01817F1F2E6
:101CC000B601A7D1852D90E095C000E01A3231F41D
:101CD000F3FC1591F3FE1191EF0101E0E12C20EDF1
:101CE000210F2A3038F101FF34C0EE2059F31836A5
:101CF00099F11C3609F43AC0112321F3612F70E0E9
:101D00008FE790E0D9D0892BE9F2912C812C00FD4E
:101D100006C0F50180809180C50102965C011E36E7
:101D200069F5F6014681578170E060E0202FC4011B
:101D3000CFDEA4CF02606E2D70E090E080E040E244
:101D4000D3DEE62EFE01F3FC1591F3FE1191EF01B7
:101D5000C6CFEE24EA94CBCFFE01F3FC1591F3FE3F
:101D60001191EF01183609F0C7CF08600460FE0139
:101D7000F3FC1591F3FE1191EF01BECF1336B9F4C8
:101D800001FD02C0EE24E394C601AAD097FD2EC047
:101D90008114910429F0F4018083C40101964C015F
:101DA000EA94E110F1CF00FD69CF539467CFC601EB
:101DB000BEDE97FD1BC01F3609F43DC030F414365B
:101DC00041F0193639F0006405C0133711F11537A9
:101DD000D1F70062202FA4016E2DC601BEDE811155
:101DE000E2CFF6018381807309F46CCF8FEF9FEF10
:101DF000511068CFCDB7DEB7EFE03EC0811491043B
:101E000029F0F4016082C40101964C01EA94EE20AD
:101E100059F0C60165D03C0197FD06C045D0892B1D
:101E200069F3B601C301F5D08114910409F4BBCF65
:101E3000F4011082B8CF0061CDCF2F923F924F9224
:101E40005F926F927F928F929F92AF92BF92CF924A
:101E5000DF92EF92FF920F931F93CF93DF93CDB753
:101E6000DEB7CA1BDB0B0FB6F894DEBF0FBECDBFCB
:101E700009942A88398848885F846E847D848C849C
:101E80009B84AA84B984C884DF80EE80FD800C81A5
:101E90001B81AA81B981CE0FD11D0FB6F894DEBF88
:101EA0000FBECDBFED010895911129C1803219F007
:101EB00089508550D0F70895FC010590061621F051
:101EC0000020D9F7C00108953197CF010895FB0193
:101ED000DC0102C001900D9241505040D8F70895A6
:101EE000CF93DF93EC012B8120FF1AC026FF0CC09B
:101EF0002F7B2B838E819F8101969F838E838A8186
:101F000090E0DF91CF91089522FF18C0E881F98118
:101F10008081082E000C990B009729F420622B83F6
:101F20008FEF9FEFEECF3196F983E8832E813F81CB
:101F30002F5F3F4F3F832E839927E3CFEA85FB85B1
:101F4000099597FFF3CF2B81019621F080E2822B38
:101F50008B83E6CF80E1FBCF0F931F93CF93DF936B
:101F6000182F092FEB018B8181FD09C01FEF0FEFA7
:101F7000812F902FDF91CF911F910F91089582FFB4
:101F800014C02E813F818C819D81281739073CF434
:101F9000E881F981CF0101969983888310838E812E
:101FA0009F8101969F838E83E3CFE885F985812FFA
:101FB0000995892BA1F3DACFAEE0B0E0E1EEFFE0C6
:101FC0004ACF0D891E898F89988D26E02C831A832C
:101FD000098397FF02C080E090E801979E838D837C
:101FE000AE01455E5F4F698D7A8DCE01019660DC52
:101FF0004D815E8157FD0AC02F81388542175307F6
:102000000CF49A01020F131FF80110822E96E4E0DF
:102010003ECFFB01238120FF11C026FD0FC08F3F63
:10202000980771F082832F7D206423832681378176
:102030002150310937832683992708958FEF9FEF29
:102040000895FA01AA27283051F1203181F1E8944E
:102050006F936E7F6E5F7F4F8F4F9F4FAF4FB1E09B
:102060003ED0B4E03CD0670F781F891F9A1FA11D96
:10207000680F791F8A1F911DA11D6A0F711D811D97
:10208000911DA11D20D009F468943F912AE0269F5C
:1020900011243019305D3193DEF6CF010895462FBB
:1020A0004770405D4193B3E00FD0C9F7F6CF462F9C
:1020B0004F70405D4A3318F0495D31FD4052419305
:1020C00002D0A9F7EACFB4E0A695979587957795C2
:1020D0006795BA95C9F700976105710508959B0149
:1020E000AC010A2E06945795479537952795BA95D2
:1020F000C9F7620F731F841F951FA01D08959927AC
:0821000088270895F894FFCF31
:102108000000C302BD02CF02C902CD02C702C1024C
:10211800BB02D302FF20FF00FF026330001A0184D4
:1021280001EF0169646C65006E6F6E616D65006D2D
:1021380061696E002B043802021E040507090D00B0
:102148000F1000000000000000150201000100004F
:1021580000000000050007171B1D536176652F5707
:1021680072697465204576656E7400526561642FE6
:10217800436F6C6C656374204576656E74002564E6
:042188000D0A00003C
:00000001FF
